:020000040000fa
:080000000002040000000000f2
:020000040000fa
:04000800f4040000fc
:020000040000fa
:04000c00f4040000f8
:020000040000fa
:04001000f4040000f4
:020000040000fa
:04001400f4040000f0
:020000040000fa
:04001800f4040000ec
:020000040000fa
:04001c00f4040000e8
:020000040000fa
:04002000f4040000e4
:020000040000fa
:04002400f4040000e0
:020000040000fa
:04002800f4040000dc
:020000040000fa
:04002c00f4040000d8
:020000040000fa
:04003000f4040000d4
:020000040000fa
:0400340014030000b1
:020000040000fa
:04003800f4040000cc
:020000040000fa
:04003c00f4040000c8
:020000040000fa
:04004000f4040000c4
:020000040000fa
:04004400f4040000c0
:020000040000fa
:04004800f4040000bc
:020000040000fa
:04004c00f4040000b8
:020000040000fa
:04005000f4040000b4
:020000040000fa
:04005400f4040000b0
:020000040000fa
:04005800f4040000ac
:020000040000fa
:04005c00c8020000d6
:020000040000fa
:04006000f4040000a4
:020000040000fa
:04006400f4040000a0
:020000040000fa
:04006800f40400009c
:020000040000fa
:04006c00f404000098
:020000040000fa
:04007000f404000094
:020000040000fa
:04007400f404000090
:020000040000fa
:04007800f40400008c
:020000040000fa
:04007c00f404000088
:020000040000fa
:04008000f404000084
:020000040000fa
:04008400f404000080
:020000040000fa
:04008800f40400007c
:020000040000fa
:04008c00f404000078
:020000040000fa
:04009000f404000074
:020000040000fa
:04009400f404000070
:020000040000fa
:04009800f40400006c
:020000040000fa
:04009c00f404000068
:020000040000fa
:0400a000f404000064
:020000040000fa
:0400a400f404000060
:020000040000fa
:0400a800f40400005c
:020000040000fa
:0400ac00f404000058
:020000040000fa
:0400b000f404000054
:020000040000fa
:0400b400f404000050
:020000040000fa
:0400b800f40400004c
:020000040000fa
:0400bc00f404000048
:020000040000fa
:0400c000f404000044
:020000040000fa
:0400c400f404000040
:020000040000fa
:0400c800f40400003c
:020000040000fa
:0400cc00f404000038
:020000040000fa
:0400d000f404000034
:020000040000fa
:0400d400f404000030
:020000040000fa
:0400d800f40400002c
:020000040000fa
:0400dc00f404000028
:020000040000fa
:0400e000f404000024
:020000040000fa
:0400e400f404000020
:020000040000fa
:0400e800f40400001c
:020000040000fa
:0400ec00f404000018
:020000040000fa
:0400f000f404000014
:020000040000fa
:0400f400f404000010
:020000040000fa
:0400f800f40400000c
:020000040000fa
:0400fc00f404000008
:020000040000fa
:04010000f404000003
:020000040000fa
:04010400f4040000ff
:020000040000fa
:04010800f4040000fb
:020000040000fa
:04010c00f4040000f7
:020000040000fa
:04011000f4040000f3
:020000040000fa
:04011400f4040000ef
:020000040000fa
:04011800f4040000eb
:020000040000fa
:04011c00f4040000e7
:020000040000fa
:04012000f4040000e3
:020000040000fa
:04012400f4040000df
:020000040000fa
:04012800f4040000db
:020000040000fa
:04012c00f4040000d7
:020000040000fa
:04013000f4040000d3
:020000040000fa
:04013400f4040000cf
:020000040000fa
:04013800f4040000cb
:020000040000fa
:04013c00f4040000c7
:020000040000fa
:04014000f4040000c3
:020000040000fa
:04014400f4040000bf
:020000040000fa
:04014800f4040000bb
:020000040000fa
:04014c00f4040000b7
:020000040000fa
:04015000f4040000b3
:020000040000fa
:04015400f4040000af
:020000040000fa
:04015800f4040000ab
:020000040000fa
:04015c00f4040000a7
:020000040000fa
:04016000f4040000a3
:020000040000fa
:04016400c0030000d4
:020000040000fa
:04020800f4040000fa
:020000040000fa
:04020c00f4040000f6
:020000040000fa
:04021000f4040000f2
:020000040000fa
:04021400f4040000ee
:020000040000fa
:04021800f4040000ea
:020000040000fa
:04021c00f4040000e6
:020000040000fa
:04022000f4040000e2
:020000040000fa
:04022400f4040000de
:020000040000fa
:04022800f4040000da
:020000040000fa
:04022c00f4040000d6
:020000040000fa
:04023000f4040000d2
:020000040000fa
:0402340014030000af
:020000040000fa
:04023800f4040000ca
:020000040000fa
:04023c00f4040000c6
:020000040000fa
:04024000f4040000c2
:020000040000fa
:04024400f4040000be
:020000040000fa
:04024800f4040000ba
:020000040000fa
:04024c00f4040000b6
:020000040000fa
:04025000f4040000b2
:020000040000fa
:04025400f4040000ae
:020000040000fa
:04025800f4040000aa
:020000040000fa
:04025c00c8020000d4
:020000040000fa
:04026000f4040000a2
:020000040000fa
:04026400f40400009e
:020000040000fa
:04026800f40400009a
:020000040000fa
:04026c00f404000096
:020000040000fa
:04027000f404000092
:020000040000fa
:04027400f40400008e
:020000040000fa
:04027800f40400008a
:020000040000fa
:04027c00f404000086
:020000040000fa
:04028000f404000082
:020000040000fa
:04028400f40400007e
:020000040000fa
:04028800f40400007a
:020000040000fa
:04028c00f404000076
:020000040000fa
:04029000f404000072
:020000040000fa
:04029400f40400006e
:020000040000fa
:04029800f40400006a
:020000040000fa
:04029c00f404000066
:020000040000fa
:0402a000f404000062
:020000040000fa
:0402a400f40400005e
:020000040000fa
:0402a800f40400005a
:020000040000fa
:0402ac00f404000056
:020000040000fa
:0402b000f404000052
:020000040000fa
:0402b400f40400004e
:020000040000fa
:0402b800f40400004a
:020000040000fa
:0402bc00f404000046
:020000040000fa
:0402c000f404000042
:020000040000fa
:0402c400f40400003e
:020000040000fa
:0402c800f40400003a
:020000040000fa
:0402cc00f404000036
:020000040000fa
:0402d000f404000032
:020000040000fa
:0402d400f40400002e
:020000040000fa
:0402d800f40400002a
:020000040000fa
:0402dc00f404000026
:020000040000fa
:0402e000f404000022
:020000040000fa
:0402e400f40400001e
:020000040000fa
:0402e800f40400001a
:020000040000fa
:0402ec00f404000016
:020000040000fa
:0402f000f404000012
:020000040000fa
:0402f400f40400000e
:020000040000fa
:0402f800f40400000a
:020000040000fa
:0402fc00f404000006
:020000040000fa
:04030000f404000001
:020000040000fa
:04030400f4040000fd
:020000040000fa
:04030800f4040000f9
:020000040000fa
:04030c00f4040000f5
:020000040000fa
:04031000f4040000f1
:020000040000fa
:04031400f4040000ed
:020000040000fa
:04031800f4040000e9
:020000040000fa
:04031c00f4040000e5
:020000040000fa
:04032000f4040000e1
:020000040000fa
:04032400f4040000dd
:020000040000fa
:04032800f4040000d9
:020000040000fa
:04032c00f4040000d5
:020000040000fa
:04033000f4040000d1
:020000040000fa
:04033400f4040000cd
:020000040000fa
:04033800f4040000c9
:020000040000fa
:04033c00f4040000c5
:020000040000fa
:04034000f4040000c1
:020000040000fa
:04034400f4040000bd
:020000040000fa
:04034800f4040000b9
:020000040000fa
:04034c00f4040000b5
:020000040000fa
:04035000f4040000b1
:020000040000fa
:04035400f4040000ad
:020000040000fa
:04035800f4040000a9
:020000040000fa
:04035c00f4040000a5
:020000040000fa
:04036000f4040000a1
:020000040000fa
:04036400c0030000d2
:020000040000fa
:100400008fa420000e4d24000e0188000000000083
:10041000000020000000e000020032000001200087
:100420002002880014000700cd0107000000e00052
:1004300003003a004087200001002000020037003e
:100440000000200001002000810f70000100320038
:1004500014000700000020000000e000020032004d
:100460000000020000000000b207020000000000cf
:100470000040da000000fe004440a90000202000f7
:100480000000e0000300320000002000a00188000e
:100490004440a800000006008a1f78008b1f7800e7
:1004a0000000060091018800800478000000eb0045
:1004b0001a003700e284440032a0b4009905ba0063
:1004c000e284440032a0b4009906ba00e2844400f9
:1004d00032a0b4000006eb00476fde00fd07b2005b
:1004e000636ce10003003a00ebff07000000eb0043
:1004f0000a003700606ce10004003a00005deb0088
:100500008b05e900fdff3e00040037006168e10053
:10051000010032000086eb000b00070019c7ba008b
:100520001905ba000e04e00003003a000a00e000da
:10053000e0ff3a0000000600fe07b2009e018800be
:100540008a047800f5ff3700395dba008b05e900b1
:100550000c003200295dba008b05e900080032006a
:100560000c00e00003003a00e284440032a0b40032
:10057000f5ff370019ddba008b05e900faff3a00f4
:100580008904e800e184440032a0b40000000600c1
:10059000809fbe0085a0a900c0a120001040780067
:1005a0000004e00006003a000018800000278a00de
:1005b00050502000401988002023a8001500370063
:1005c000e14f500005003a000018800080278a00a3
:1005d0002823ef002023a8000e003700e24f500030
:1005e00006003a00001880004051880010102000da
:1005f000401988002023a80006003700e34f500070
:1006000004003a000018800050518800404020004b
:1006100040198800c0a120009040e80063c8600035
:100620004f00be00004006003600f800809fbe006c
:10063000829fbe00849fbe00869fbe00881f7800f8
:100640000027820000288a008127820081288a00f2
:100650002023a800085e2400000c780002a02000df
:100660008800780050002000f8040200000000001c
:100670004200dd008880e80011017800222f8a0006
:1006800098087800e480400011017800422f8a0029
:1006900080087800085f2400000c780002a1200088
:1006a0008800780050002000f804020000000000dc
:1006b0004200dd008880e80011017800a22f8a0046
:1006c00098087800e480400011017800c22f8a0069
:1006d0008008780000298a00085a240080288200b7
:1006e000000c780002a02000880078005000200054
:1006f000f8040200000000004200dd008880e800ed
:1007000011017800222d8a0098087800e4804000ca
:1007100011017800422d8a0080087800085b2400cf
:10072000000c780002a12000880078005000200012
:10073000f8040200000000004200dd008880e800ac
:1007400011017800a22d8a0098087800e48040000a
:1007500011017800c22d8a008008780080298a0063
:100760008460a9004f0478004f03be004f02be0012
:100770004f01be004f00be003600f90000400600e9
:100780003600f800809fbe00829fbe00849fbe009e
:10079000869fbe00889fbe008de0a90000298200d0
:1007a000002a8a0081298200812a8a00c3a22000af
:1007b00002542400015624001000200034050200d9
:1007c00000000000a3a320000255240001572400cc
:1007d000100020003405020000000000c0a020002e
:1007e00016c0b300904f130004003a00802b820023
:1007f000022b82000000510003003700002b820012
:10080000822b8200000041000451800015518000bd
:10081000cf80de00432cdd004d21de00020174009c
:10082000cda9de0006a62e0007002000020153001d
:1008300083815b00028bb900009cb9000603440071
:100840000201b80083014300431bdd004d10de00b0
:1008500000007300cd98de00f2ff270003002000a7
:10086000e8ff2700880f5000e08f580008003c0088
:1008700012002800f3ff2f0026002800f7ff2f00aa
:10088000860f5000878f5800010035000001be0020
:10089000b21f8800e00f5000e08f580002003d00ba
:1008a00060001000e08018004f09dd00c101de008b
:1008b000830171004f01dd00f05080000000e00076
:1008c00003003200e10f50003d003a0021003700e4
:1008d000820f5200838f5a000f003d002451800088
:1008e0003551800004035100858359004c3cdd00e4
:1008f0004430de0000007400c4b8de000000420096
:1009000081804a0020518800315188000000eb00ae
:10091000f05088000200370010002000f0508800de
:100920002451800035518000040151008581590017
:10093000491bdd004710de0000007300c798de0091
:100940000000420081804a00005188001151880057
:100950001d003700820f5200838f5a0011003400af
:10096000003c2600f1ff2f0022518000335180000f
:1009700002004000838048002051880031518800e7
:10098000e00f5000e08f580003003d006000b80009
:10099000205188003151880010002000f05088005c
:1009a000020037000000eb00f0508800205180006a
:1009b0003151800000518800115188000200370039
:1009c0000000eb00f0508800f823ef004f04be0059
:1009d0004f03be004f02be004f01be004f00be00dd
:1009e0003600f900004006000040da000000fe007a
:1009f0004400f800040f2000240288000000e900f1
:100a00001201c300008008000200000031027800db
:100a1000b20278001201c0000000cd004400f900cd
:100a2000000006008102d0008502e900011878006c
:100a3000021878000518410003187800041878009f
:100a400005184200040878000000060080009000ad
:100a50000101e900c00090000000200002800900b0
:100a60008018780000000600889fbe008a9fbe00a4
:100a70008c9fbe008e1f78004400f800080f2000f5
:100a8000280288003400f8004600f8004800f8000a
:100a90004a00f8004c00f8004e00f8008a0a2c00ca
:100aa0003a02880023049000580288001304900042
:100ab00048028800530590007a02880043059000a0
:100ac0006a028800811f78000f07780033059000c4
:100ad00007f02f000a38e1000400320027028000ee
:100ae0004700b30027028800aa0188006305900030
:100af00003029000630252000000e9000080080039
:100b000007000000320d7800000000004618c30006
:100b1000048009004618c4004218c4001201c40031
:100b20003100cd00ea0198008e0778004f00780070
:100b30004e00f9004c00f9004a00f9004800f900a5
:100b40004600f9003400f9004400f9004f0778002e
:100b50004f06be004f05be004f04be000000060059
:040b6000000005008c
:020000040000fa
:100b64000000000000000000000000000000000081
:100b7400ffff00000000000000000000feff000076
:100b8400ffff000001000000feff0000fbff00006b
:100b94000200000005000000fcff0000feff000052
:100ba4000c00000008000000fbff00000c00000027
:100bb4001d000000070000000200000028000000e3
:100bc40029000000030000001a0000004b00000090
:100bd40024000000feff0000420000005b00000053
:100be40000000000030000006b000000380000005b
:100bf400c0ff0000180000006f000000c7ff0000e5
:100c04007bff0000350000001a0000000fff000009
:100c140056ff00003600000045ff000046fe0000bd
:100c240072ff0000deff0000f4fd0000cdfd0000b7
:100c3400d4ff0000e4fe00005ffc000028fe00007a
:100c44005d000000defc0000f2fa00004f0000002e
:100c5400d2000000b1f700001bfa0000931100005d
:100c6400fe2000008a11000021fa0000bef70000f7
:100c7400d10000004e00000001fb0000eafc00006f
:100c84005b00000031fe000072fc0000eafe000080
:100c9400d5ff0000dcfd000002fe0000dfff0000c5
:100ca40077ff000056fe00004cff000034000000f7
:100cb4005dff00001aff000019000000330000006f
:100cc40081ff0000caff0000690000001700000057
:100cd400c4ff0000340000006400000003000000b2
:100ce40000000000550000003d000000feff000071
:100cf4002100000044000000170000000200000072
:100d0400250000002400000002000000070000008d
:100d1400190000000a000000fcff000007000000aa
:100d24000b000000feff0000fdff000004000000b7
:100d340001000000fcff0000ffff000001000000b4
:100d4400ffff0000feff00000000000000000000a4
:100d5400000000000000000000000000000000008f
:100d6400000000000000000000000000000000007f
:100d740000000000ffff000000000000ffff000073
:100d8400fdff0000feff000000000000fbff00006c
:100d9400f7ff0000feff0000feff0000f2ff00006e
:100da400f3ff000001000000f7ff0000e7ff000070
:100db400faff000007000000ebff0000e7ff00005f
:100dc400110000000b000000e1ff00000200000021
:100dd4003600000008000000ebff000042000000a5
:100de4005a000000ffff00001e0000009b000000ee
:100df40063000000ffff000083000000e500000026
:100e04003b0000001d00000004010000df000000a2
:100e1400e0ff00006b0000005d0100004a000000dc
:100e240070ff0000de00000020010000fffe000053
:100e34001aff000035010000b6ff0000f0fc0000be
:100e44000dff0000d2000000f8fb0000a4f9000030
:100e540059ff000041fd0000e3ec000017e800002a
:100e640062ff00006d170000ac13000030030000a7
:100e7400720000002d0600003704000044ff00004b
:100e8400c9000000070300006b000000c9fe000059
:100e9400cc0000000b010000f7fe000019ff000069
:100ea40086000000c9ff0000b0fe00008cff0000b7
:100eb4002200000034ff000001ff0000deff0000fc
:100ec400cfff00002aff00007dff000001000000aa
:100ed400a9ff00006dff0000dfff00000300000019
:100ee400afff0000c0ff000012000000fbff000085
:100ef400cfff0000fbff00001d000000f8ff000012
:100f0400f0ff00001500000014000000faff0000cc
:100f1400050000001600000009000000ffff0000ab
:100f24000a0000000d0000000200000002000000a2
:100f340007000000040000000000000002000000a0
:100f44000300000000000000000000000100000099
:100f5400000000000000000000000000000000008d
:020000040000fa
:100f640000fe2f004427b600f0f32f004427b600fc
:100f740020032000303a88000460240003f02f008e
:100f84000280200001082000c0a2200012050200f7
:100f940000000000c0a2200026050200000000009e
:100fa4000470240003f02f000290200001082000a8
:100fb400a0a320001205020000000000a0a320004e
:100fc4002605020000000000c8a2ef009460a800fb
:100fd400f0fc2f000421b6007025200010088800c2
:100fe4000021ef00f3ff280020058000008161004c
:100ff400010026008280700021058800017e200007
:10100400011988002223ef002102b0002119880071
:10101400e13fb10041198800c1fc2f00611988002b
:1010240021e3a800c1a120008048eb0085a0a9000d
:1010340000072000aa20b70095a0a8000170200096
:10104400513a8800f2e3a800f3e3a800f243a900b0
:10105400f343a90001f82f00801f80008080600006
:10106400a104b300811f8800f103a800f423ef005a
:10107400f823ef00f623ef00f1e3a8008de0a900c8
:101084008dc0a90051068000018061000100250087
:101094008080700051068800f08f2f00ca20b600af
:1010a4009de0a8009dc0a90005e1a800045b2800fc
:1010b400e37f2000026b2800e18f2000000820005d
:1010c400d4297800d22878000000e900fcff3a0017
:1010d40051168000c708de00c0a0200061c860006f
:0410e400fbff3700d7
:020000040000fa
:1010e8000c0a0000020000000200000001000000dd
:1010f8001c0a00002c00000000000000e044000072
:101108000200000000000000f0440000020000009f
:101118000000000000450000020000000000000080
:1011280010450000020000000000000020450000fb
:10113800020000000000000030450000020000002e
:101148000000000040450000020000000000000010
:10115800504500000200000000000000604500004b
:1011680002000000000000007045000002000000be
:1011780000000000000a00000c000000020000004f
:101188008e005600ff8e0000c33bcc00e302000037
:10119800100a00000c00000002000000c008230034
:1011a800f0c00800133d4a00e102000000080000fa
:1011b80000010000000000000046000000010000df
:1011c800000000000009000000010000000000000d
:1011d800004700000001000000000000e04500009a
:1011e8000a00000000000000f04500000a000000ae
:1011f80000000000c04500000a00000000000000d8
:10120800d04500000a00000000000000a0450000d2
:101218000a00000000000000b04500000a000000bd
:1012280000000000804500000a00000000000000e7
:10123800904500000a0000000000000000000000c7
:020000040000fa
:0200000401f009
:04000000ffff0000fe
:020000040000fa
:0200000401f009
:04000400ffff0000fa
:020000040000fa
:0200000401f009
:04000800fbff0000fa
:020000040000fa
:0200000401f009
:04000c00810000006f
:020000040000fa
:0200000401f009
:04001000a300000049
:020000040000fa
:0200000401f009
:040014005f00000089
:020000040000fa
:0200000401f009
:04001800f7000000ed
:020000040000fa
:0200000401f009
:04001c00deff000003
:00000001FF
